{
  "contractName": "ToDoContract",
  "abi": [
    {
      "anonymous": false,
      "inputs": [
        {
          "indexed": false,
          "internalType": "string",
          "name": "task",
          "type": "string"
        },
        {
          "indexed": false,
          "internalType": "uint256",
          "name": "taskNumber",
          "type": "uint256"
        }
      ],
      "name": "TaskCreated",
      "type": "event"
    },
    {
      "anonymous": false,
      "inputs": [
        {
          "indexed": false,
          "internalType": "uint256",
          "name": "taskNumber",
          "type": "uint256"
        }
      ],
      "name": "TaskDeleted",
      "type": "event"
    },
    {
      "anonymous": false,
      "inputs": [
        {
          "indexed": false,
          "internalType": "string",
          "name": "task",
          "type": "string"
        },
        {
          "indexed": false,
          "internalType": "uint256",
          "name": "taskId",
          "type": "uint256"
        },
        {
          "indexed": false,
          "internalType": "bool",
          "name": "isComplete",
          "type": "bool"
        }
      ],
      "name": "TaskIsCompleteToggled",
      "type": "event"
    },
    {
      "anonymous": false,
      "inputs": [
        {
          "indexed": false,
          "internalType": "string",
          "name": "task",
          "type": "string"
        },
        {
          "indexed": false,
          "internalType": "uint256",
          "name": "taskId",
          "type": "uint256"
        }
      ],
      "name": "TaskUpdated",
      "type": "event"
    },
    {
      "inputs": [],
      "name": "taskCount",
      "outputs": [
        {
          "internalType": "uint256",
          "name": "",
          "type": "uint256"
        }
      ],
      "stateMutability": "view",
      "type": "function",
      "constant": true
    },
    {
      "inputs": [
        {
          "internalType": "uint256",
          "name": "",
          "type": "uint256"
        }
      ],
      "name": "todos",
      "outputs": [
        {
          "internalType": "uint256",
          "name": "index",
          "type": "uint256"
        },
        {
          "internalType": "string",
          "name": "taskName",
          "type": "string"
        },
        {
          "internalType": "bool",
          "name": "isComplete",
          "type": "bool"
        }
      ],
      "stateMutability": "view",
      "type": "function",
      "constant": true
    },
    {
      "inputs": [
        {
          "internalType": "string",
          "name": "_taskName",
          "type": "string"
        }
      ],
      "name": "createTask",
      "outputs": [],
      "stateMutability": "nonpayable",
      "type": "function"
    },
    {
      "inputs": [
        {
          "internalType": "uint256",
          "name": "_taskId",
          "type": "uint256"
        },
        {
          "internalType": "string",
          "name": "_taskName",
          "type": "string"
        }
      ],
      "name": "updateTask",
      "outputs": [],
      "stateMutability": "nonpayable",
      "type": "function"
    },
    {
      "inputs": [
        {
          "internalType": "uint256",
          "name": "_taskId",
          "type": "uint256"
        }
      ],
      "name": "toggleComplete",
      "outputs": [],
      "stateMutability": "nonpayable",
      "type": "function"
    },
    {
      "inputs": [
        {
          "internalType": "uint256",
          "name": "_taskId",
          "type": "uint256"
        }
      ],
      "name": "deleteTask",
      "outputs": [],
      "stateMutability": "nonpayable",
      "type": "function"
    }
  ],
  "bytecode": "0x60806040526000805534801561001457600080fd5b50610e56806100246000396000f3fe608060405234801561001057600080fd5b50600436106100625760003560e01c80630951e5bd14610067578063111002aa14610083578063560f31921461009f57806386533f6c146100bb578063b6cb58a5146100d7578063bc8bc2b4146100f5575b600080fd5b610081600480360381019061007c919061070f565b610127565b005b61009d60048036038101906100989190610882565b6102c4565b005b6100b960048036038101906100b4919061070f565b610399565b005b6100d560048036038101906100d091906108cb565b610415565b005b6100df6105a3565b6040516100ec9190610936565b60405180910390f35b61010f600480360381019061010a919061070f565b6105a9565b60405161011e939291906109eb565b60405180910390f35b6000600160008381526020019081526020016000206040518060600160405290816000820154815260200160018201805461016190610a58565b80601f016020809104026020016040519081016040528092919081815260200182805461018d90610a58565b80156101da5780601f106101af576101008083540402835291602001916101da565b820191906000526020600020905b8154815290600101906020018083116101bd57829003601f168201915b505050505081526020016002820160009054906101000a900460ff16151515158152505090506040518060600160405280838152602001826020015181526020018260400151151515815250600160008481526020019081526020016000206000820151816000015560208201518160010190816102589190610c35565b5060408201518160020160006101000a81548160ff0219169083151502179055509050507f21d25b1182ece704b24eedd00ef3879b75f4bd2e9a3137cfde0c6405b28ce78c8160200151838360400151156040516102b893929190610d07565b60405180910390a15050565b6040518060600160405280600054815260200182815260200160001515815250600160008060008154809291906102fa90610d74565b91905055815260200190815260200160002060008201518160000155602082015181600101908161032b9190610c35565b5060408201518160020160006101000a81548160ff0219169083151502179055509050507fed1d390c812a65783a09786b88b832ef75bb16882fbc56eeea9bf61a4c1a8ac78160016000546103809190610dbc565b60405161038e929190610df0565b60405180910390a150565b600160008281526020019081526020016000206000808201600090556001820160006103c59190610668565b6002820160006101000a81549060ff021916905550507fd078b251d950cc55c44340be1db732337ef4939a76e1367ee271ad2cb19c46af8160405161040a9190610936565b60405180910390a150565b6000600160008481526020019081526020016000206040518060600160405290816000820154815260200160018201805461044f90610a58565b80601f016020809104026020016040519081016040528092919081815260200182805461047b90610a58565b80156104c85780601f1061049d576101008083540402835291602001916104c8565b820191906000526020600020905b8154815290600101906020018083116104ab57829003601f168201915b505050505081526020016002820160009054906101000a900460ff1615151515815250509050604051806060016040528084815260200183815260200182604001511515815250600160008581526020019081526020016000206000820151816000015560208201518160010190816105419190610c35565b5060408201518160020160006101000a81548160ff0219169083151502179055509050507fa19b2211615873e8fbe860460ba43e467bf8f2d28d98b023144fc0739af842cd8284604051610596929190610df0565b60405180910390a1505050565b60005481565b60016020528060005260406000206000915090508060000154908060010180546105d290610a58565b80601f01602080910402602001604051908101604052809291908181526020018280546105fe90610a58565b801561064b5780601f106106205761010080835404028352916020019161064b565b820191906000526020600020905b81548152906001019060200180831161062e57829003601f168201915b5050505050908060020160009054906101000a900460ff16905083565b50805461067490610a58565b6000825580601f1061068657506106a5565b601f0160209004906000526020600020908101906106a491906106a8565b5b50565b5b808211156106c15760008160009055506001016106a9565b5090565b6000604051905090565b600080fd5b600080fd5b6000819050919050565b6106ec816106d9565b81146106f757600080fd5b50565b600081359050610709816106e3565b92915050565b600060208284031215610725576107246106cf565b5b6000610733848285016106fa565b91505092915050565b600080fd5b600080fd5b6000601f19601f8301169050919050565b7f4e487b7100000000000000000000000000000000000000000000000000000000600052604160045260246000fd5b61078f82610746565b810181811067ffffffffffffffff821117156107ae576107ad610757565b5b80604052505050565b60006107c16106c5565b90506107cd8282610786565b919050565b600067ffffffffffffffff8211156107ed576107ec610757565b5b6107f682610746565b9050602081019050919050565b82818337600083830152505050565b6000610825610820846107d2565b6107b7565b90508281526020810184848401111561084157610840610741565b5b61084c848285610803565b509392505050565b600082601f8301126108695761086861073c565b5b8135610879848260208601610812565b91505092915050565b600060208284031215610898576108976106cf565b5b600082013567ffffffffffffffff8111156108b6576108b56106d4565b5b6108c284828501610854565b91505092915050565b600080604083850312156108e2576108e16106cf565b5b60006108f0858286016106fa565b925050602083013567ffffffffffffffff811115610911576109106106d4565b5b61091d85828601610854565b9150509250929050565b610930816106d9565b82525050565b600060208201905061094b6000830184610927565b92915050565b600081519050919050565b600082825260208201905092915050565b60005b8381101561098b578082015181840152602081019050610970565b60008484015250505050565b60006109a282610951565b6109ac818561095c565b93506109bc81856020860161096d565b6109c581610746565b840191505092915050565b60008115159050919050565b6109e5816109d0565b82525050565b6000606082019050610a006000830186610927565b8181036020830152610a128185610997565b9050610a2160408301846109dc565b949350505050565b7f4e487b7100000000000000000000000000000000000000000000000000000000600052602260045260246000fd5b60006002820490506001821680610a7057607f821691505b602082108103610a8357610a82610a29565b5b50919050565b60008190508160005260206000209050919050565b60006020601f8301049050919050565b600082821b905092915050565b600060088302610aeb7fffffffffffffffffffffffffffffffffffffffffffffffffffffffffffffffff82610aae565b610af58683610aae565b95508019841693508086168417925050509392505050565b6000819050919050565b6000610b32610b2d610b28846106d9565b610b0d565b6106d9565b9050919050565b6000819050919050565b610b4c83610b17565b610b60610b5882610b39565b848454610abb565b825550505050565b600090565b610b75610b68565b610b80818484610b43565b505050565b5b81811015610ba457610b99600082610b6d565b600181019050610b86565b5050565b601f821115610be957610bba81610a89565b610bc384610a9e565b81016020851015610bd2578190505b610be6610bde85610a9e565b830182610b85565b50505b505050565b600082821c905092915050565b6000610c0c60001984600802610bee565b1980831691505092915050565b6000610c258383610bfb565b9150826002028217905092915050565b610c3e82610951565b67ffffffffffffffff811115610c5757610c56610757565b5b610c618254610a58565b610c6c828285610ba8565b600060209050601f831160018114610c9f5760008415610c8d578287015190505b610c978582610c19565b865550610cff565b601f198416610cad86610a89565b60005b82811015610cd557848901518255600182019150602085019450602081019050610cb0565b86831015610cf25784890151610cee601f891682610bfb565b8355505b6001600288020188555050505b505050505050565b60006060820190508181036000830152610d218186610997565b9050610d306020830185610927565b610d3d60408301846109dc565b949350505050565b7f4e487b7100000000000000000000000000000000000000000000000000000000600052601160045260246000fd5b6000610d7f826106d9565b91507fffffffffffffffffffffffffffffffffffffffffffffffffffffffffffffffff8203610db157610db0610d45565b5b600182019050919050565b6000610dc7826106d9565b9150610dd2836106d9565b9250828203905081811115610dea57610de9610d45565b5b92915050565b60006040820190508181036000830152610e0a8185610997565b9050610e196020830184610927565b939250505056fea2646970667358221220d6ace3d51f6c6e5164de7a6f485956804e688566584efe042c4f3c6ef8733f8264736f6c63430008110033",
  "immutableReferences": {},
  "source": "// SPDX-License-Identifier: MIT\npragma solidity >=0.4.22 <0.9.0;\n\ncontract ToDoContract {\n    uint256 public taskCount = 0;\n\n    struct Task {\n        uint256 index;\n        string taskName;\n        bool isComplete;\n    }\n\n    mapping(uint256 => Task) public todos;\n    event TaskCreated(string task, uint256 taskNumber);\n    event TaskUpdated(string task, uint256 taskId);\n    event TaskIsCompleteToggled(string task, uint256 taskId, bool isComplete);\n    event TaskDeleted(uint256 taskNumber);\n\n    function createTask(string memory _taskName) public {\n        todos[taskCount++] = Task(taskCount, _taskName, false);\n\n        // emit event\n        emit TaskCreated(_taskName, taskCount - 1);\n    }\n\n    function updateTask(uint256 _taskId, string memory _taskName) public {\n        Task memory currTask = todos[_taskId];\n        todos[_taskId] = Task(_taskId, _taskName, currTask.isComplete);\n\n        // emit event\n        emit TaskUpdated(_taskName, _taskId);\n    }\n\n    function toggleComplete(uint256 _taskId) public {\n        Task memory currTask = todos[_taskId];\n        todos[_taskId] = Task(_taskId, currTask.taskName, !currTask.isComplete);\n\n        // emit event\n        emit TaskIsCompleteToggled(\n            currTask.taskName,\n            _taskId,\n            !currTask.isComplete\n        );\n    }\n\n    function deleteTask(uint256 _taskId) public {\n        delete todos[_taskId];\n\n        // emit event\n        emit TaskDeleted(_taskId);\n    }\n}\n",
  "sourcePath": "/Users/shri.charan/AndroidStudioProjects/flutter/todolist_hivedb/smartcontract/contracts/ToDoContract.sol",
  "compiler": {
    "name": "solc",
    "version": "0.8.17+commit.8df45f5f.Emscripten.clang"
  },
  "schemaVersion": "3.4.10",
  "updatedAt": "2022-10-11T19:42:53.497Z",
  "networkType": "ethereum",
  "devdoc": {
    "kind": "dev",
    "methods": {},
    "version": 1
  },
  "userdoc": {
    "kind": "user",
    "methods": {},
    "version": 1
  }
}